:020000040000FA
:02000000A02836
:020008000000F6
:06000A00F000030E83125A
:10001000A0000A08A1008A010408A20010148A1195
:100020000A129F22831203138A110A120B1D8E28B3
:10003000230881020B11831203135B1922285B151D
:10004000071424285B1107102C1C8E280030831203
:100050000313D9003C30D1002D30D2008A110A128E
:1000600000248A110A1283120313590883120313FE
:10007000C200003083120313D9004330D100313065
:10008000D2008A110A1200248A110A128312031361
:100090005908C900421C682842102908A50083128B
:1000A0000313300883120313A7008A150A120020D5
:1000B0008A110A122508A9008312031305110530BD
:1000C0008A150A1213218A110A12831203130515C5
:1000D000491C862849102A08A500831203133408F6
:1000E00083120313A7008A150A1200208A110A122C
:1000F0002508AA0083120313851105308A150A12F8
:1001000013218A110A128312031385150130BB02D1
:10011000031CBA02031CB902031C2C10101083121A
:1001200003130E08DC000F08DD008E018F0122088A
:10013000840021088A00200E8300F00E700E090052
:100140008B018501E301AC01DB01203084008001DB
:10015000840A62300406031DA728831606309F0018
:100160008501003086000030860080308700003036
:100170008800003089008130810083124530810081
:10018000BB3083120313A3008312031300309000CB
:10019000831603130C10831203138E018F018A112F
:1001A0000A123E228A110A120B128B118B168B1720
:1001B000E621D02183120313DE00733A031DE828E1
:1001C0002C182A29E6210D3001220A300122D928D3
:1001D0005E084C3A031D302983132D308400D02152
:1001E0008000D021840A8000D021840A8000D021A0
:1001F000840A8000D021840A8000D021840A8000F3
:10020000D021840A8000D021840A8000D021840A71
:100210008000D021840A8000D021840A8000D0216F
:10022000840A8000D021840A8000D021840A8000C2
:10023000D021840A80002C14E6210D3001220A30DE
:1002400001223C3084008001840A50300406031DE2
:100250002329D928EF210D3001220A300122D92883
:100260000000831203135E08533A031DBA292C18A9
:10027000EF215830012220300122831203133C0861
:10028000092220300122831203133D080922203065
:100290000122831203133E08092220300122831217
:1002A00003133F0809222030012283120313400860
:1002B00009222030012283120313410809220D3044
:1002C00001220A30012259300122203001228312FA
:1002D0000313430809222030012283120313440828
:1002E00009222030012283120313450809222030FD
:1002F00001228312031346080922203001228312AF
:1003000003134708092220300122831203134808EF
:1003100009220D3001220A30012250300122203002
:10032000012283120313390809222030012283128B
:1003300003133A08092220300122831203133B08D9
:1003400009222D3001225430012283120313230885
:1003500009222D30012274300122831203135D081B
:100360000922831203135C0809220D3001220A308E
:100370000122D928831203135E08543A031DCA29A7
:10038000D02183120313A300E6210D3001220A308D
:100390000122D928F8210D3001220A300122D92862
:1003A000831203130408DF0083160313C408031920
:1003B000D42920158B128A110A1262228312031388
:1003C0008B16E0005F088400600808004B3083163D
:1003D00003132018E9298A110A12772208004630EF
:1003E000831603132018F2298A110A1277220800B3
:1003F0004530831603132018FB298A110A1277222D
:100400000800831603132018032A8A110A12772280
:10041000080083120313E200620E0F3922221D220C
:100420008A110A1277228312031362080F392222DB
:100430001D228A110A12772208008316031320183E
:100440001D2A0800831203132B3EE100630D023EB8
:100450008A00610882003034313432343334343429
:1004600035343634373438343934613462346334B3
:080470006434653466340800B1
:040478000034003418
:04047C008130831632
:100480000313990083160313980198161815831601
:1004900003130C128C168312031398019817181665
:1004A00083160313B101B301B20183160313C40110
:1004B000C601C50183160313A001831203138B1712
:1004C0000B170800831603134408031D692A20151F
:1004D000003483134608B43E8400C60A1030460632
:1004E0000319C6010008C403A010201208008316D7
:1004F0000313C800201808003108031D8A2A480881
:1005000083120313990083160313B30A10303306C2
:100510000319B30183133208A13E8400B20A1030DC
:1005200032060319B201B10A10303106031D992AAF
:10053000201448088000831603130C1608000408D2
:1005400083160313C900831203130C1EC12A8316DA
:1005500003130C1EC12A831603132010B10BB42AF7
:10056000831603130C12C12A83133308A13E84009F
:10057000B30A103033060319B301000883120313C2
:100580009900831603138C1EF82A831203138C1E02
:10059000F82A831203131A0883160313C700831261
:1005A000031306301805031DF12A83160313201ABE
:1005B000F82AA01CDD2A2016F82A831603138313B9
:1005C0004508B43E8400C50A103045060319C5012C
:1005D0002011C40A103044060319A01447088000F3
:1005E000F82A831203131812181683160313A01582
:0A05F0008316031349088400080075
:10080000831203138313520884000008D600840A5D
:100810000008D700840A0008D8008313831203134A
:100820005108053E84000030DA0058088007031C98
:100830001B2C0130DA0084035A088007031C232C88
:100840000130DA00242CDA0157088007031C292C18
:10085000DA0A84035A088007031C322C0130DA00BC
:100860005914332CDA0156088007031C392CDA0A94
:10087000591484035A088007031C412C0130DA0004
:10088000422CDA0184035A088007031C4A2C0130E9
:0E089000DA004B2CDA0184035A0880070800B6
:101000008312031327180728250A0F3909282503F7
:101010000F3983120313A5008A150A121A208312AE
:101020000313E50025088A150A12362083120313DC
:10103000E400080083120313A80008308A0028087F
:101040000F39253E03188A0A8200F034D0348034E8
:101050004034043444348434D434F434D4348434C4
:101060004434003440348034D034080083120313F5
:10107000A80008308A0028080F39413E03188A0A60
:101080008200003440348034D034F034D0348034A2
:101090004034043444348434D434F434D434843484
:1010A0004434080083120313A70100185A28250AA4
:1010B0000F395C2825030F39A5008A150A129620DE
:1010C0000F39A600A60E25088A150A127A200F39B4
:1010D000A60425088A150A12CE2083120313A7003E
:1010E000A70D023925088A150A12B22083120313AC
:1010F000A704080083120313A80008308A002808F8
:101100000F39853E03188A0A8200003406340B34F6
:101110000E340F340E340B340634003406340B34E2
:101120000E340F340E340B340634080083120313CC
:10113000A80008308A0028080F39A13E03188A0A3F
:1011400082000F340E340B340634003406340B3472
:101150000E340F340E340B340634003406340B34A2
:101160000E34080083120313A80008308A002808F0
:101170000F39BD3E03188A0A82000134013401345C
:1011800001340034003400340034003400340034BE
:101190000034013401340134013408008312031394
:1011A000A80008308A0028080F39D93E03188A0A97
:1011B000820001340134013401340134013401343A
:1011C000013401340034003400340034003400347D
:1011D00000340034080043346F346E347434723495
:1011E0006F346C34653420344D346F3474346F3460
:1011F00072342034643465342034503461347334B0
:1012000073346F34203430342E34323420342D345F
:10121000203436342D34303431342D3432343034BB
:1012200031343034003484000630E7000010E50D1E
:10123000031C1C2980141D2980100014E703031DC2
:10124000162900100630E7000010E40D031C2A29BF
:1012500080142B2980100014E703031D242900109B
:02126000080084
:00000001FF
